:02000000FC28DA
:0E0006008312031323088A00220882000800D8
:1000140003208A110A128000840AA20A0319A30A7F
:08002400F003031D0A28080087
:10002C00B1288312031387010630FB001330FC0048
:10003C00AD30FD00FD0B2028FC0B2028FB0B2028ED
:10004C0000000000FB28053087000630FB00133051
:10005C00FC00AD30FD00FD0B3128FC0B3128FB0BF7
:10006C00312800000000FB28013087000630FB001F
:10007C001330FC00AD30FD00FD0B4228FC0B422878
:10008C00FB0B422800000000FB28093087000630DB
:10009C00FB001330FC00AD30FD00FD0B5328FC0BB6
:1000AC005328FB0B532800000000FB280830870066
:1000BC000630FB001330FC00AD30FD00FD0B642856
:1000CC00FC0B6428FB0B642800000000FB280A30A2
:1000DC0087000630FB001330FC00AD30FD00FD0B3B
:1000EC007528FC0B7528FB0B752800000000FB28FD
:1000FC00023087000630FB001330FC00AD30FD00F1
:10010C00FD0B8628FC0B8628FB0B862800000000C4
:10011C00FB28063087000630FB001330FC00AD30A6
:10012C00FD00FD0B9728FC0B9728FB0B9728000074
:10013C000000FB28043087000630FB001330FC0065
:10014C00AD30FD00FD0BA828FC0BA828FB0BA82844
:10015C0000000000FB288312031300302506031D4A
:10016C00B928003024060319172800302506031D72
:10017C00C128013024060319292800302506031D47
:10018C00C9280230240603193A2800302506031D1D
:10019C00D1280330240603194B2800302506031DF3
:1001AC00D9280430240603195C2800302506031DC9
:1001BC00E1280530240603196D2800302506031D9F
:1001CC00E9280630240603197E2800302506031D75
:1001DC00F1280730240603198F2800302506031D4B
:0C01EC00F928083024060319A028080098
:1001F80083120313A001A101831603178801890143
:10020800FF300313850087018701831287011F29A7
:10021800A00A0319A10A2008A4002108A500162095
:1002280027290130A002031CA1032008A4002108EB
:10023800A500162027290508013A03190C290508E5
:0A024800023A031915290B29282991
:04400E00D2230007B2
:00000001FF
